{
  "_format": "hh-sol-artifact-1",
  "contractName": "MultiSigWallet",
  "sourceName": "contracts/MultiSigWallet.sol",
  "abi": [
    {
      "inputs": [
        {
          "internalType": "address[]",
          "name": "_approvers",
          "type": "address[]"
        },
        {
          "internalType": "uint256",
          "name": "_numApprovalsRequired",
          "type": "uint256"
        }
      ],
      "stateMutability": "nonpayable",
      "type": "constructor"
    },
    {
      "anonymous": false,
      "inputs": [
        {
          "indexed": true,
          "internalType": "address",
          "name": "approver",
          "type": "address"
        },
        {
          "indexed": true,
          "internalType": "uint256",
          "name": "txIndex",
          "type": "uint256"
        }
      ],
      "name": "ApproveTransaction",
      "type": "event"
    },
    {
      "anonymous": false,
      "inputs": [
        {
          "indexed": true,
          "internalType": "address",
          "name": "sender",
          "type": "address"
        },
        {
          "indexed": false,
          "internalType": "uint256",
          "name": "amount",
          "type": "uint256"
        },
        {
          "indexed": false,
          "internalType": "uint256",
          "name": "balance",
          "type": "uint256"
        }
      ],
      "name": "Deposit",
      "type": "event"
    },
    {
      "anonymous": false,
      "inputs": [
        {
          "indexed": true,
          "internalType": "address",
          "name": "approver",
          "type": "address"
        },
        {
          "indexed": true,
          "internalType": "uint256",
          "name": "txIndex",
          "type": "uint256"
        }
      ],
      "name": "ExecuteTransaction",
      "type": "event"
    },
    {
      "anonymous": false,
      "inputs": [
        {
          "indexed": true,
          "internalType": "address",
          "name": "approver",
          "type": "address"
        },
        {
          "indexed": true,
          "internalType": "uint256",
          "name": "txIndex",
          "type": "uint256"
        }
      ],
      "name": "RevokeApproval",
      "type": "event"
    },
    {
      "anonymous": false,
      "inputs": [
        {
          "indexed": true,
          "internalType": "address",
          "name": "approver",
          "type": "address"
        },
        {
          "indexed": true,
          "internalType": "uint256",
          "name": "txIndex",
          "type": "uint256"
        },
        {
          "indexed": true,
          "internalType": "address",
          "name": "to",
          "type": "address"
        },
        {
          "indexed": false,
          "internalType": "uint256",
          "name": "amount",
          "type": "uint256"
        },
        {
          "indexed": false,
          "internalType": "bytes",
          "name": "data",
          "type": "bytes"
        }
      ],
      "name": "SubmitTransaction",
      "type": "event"
    },
    {
      "inputs": [
        {
          "internalType": "uint256",
          "name": "_txIndex",
          "type": "uint256"
        }
      ],
      "name": "approveTransaction",
      "outputs": [],
      "stateMutability": "nonpayable",
      "type": "function"
    },
    {
      "inputs": [
        {
          "internalType": "uint256",
          "name": "",
          "type": "uint256"
        }
      ],
      "name": "approvers",
      "outputs": [
        {
          "internalType": "address",
          "name": "",
          "type": "address"
        }
      ],
      "stateMutability": "view",
      "type": "function"
    },
    {
      "inputs": [
        {
          "internalType": "uint256",
          "name": "_txIndex",
          "type": "uint256"
        }
      ],
      "name": "executeTransaction",
      "outputs": [],
      "stateMutability": "nonpayable",
      "type": "function"
    },
    {
      "inputs": [],
      "name": "getApprovers",
      "outputs": [
        {
          "internalType": "address[]",
          "name": "",
          "type": "address[]"
        }
      ],
      "stateMutability": "view",
      "type": "function"
    },
    {
      "inputs": [
        {
          "internalType": "uint256",
          "name": "_txIndex",
          "type": "uint256"
        }
      ],
      "name": "getTransaction",
      "outputs": [
        {
          "internalType": "address",
          "name": "to",
          "type": "address"
        },
        {
          "internalType": "uint256",
          "name": "amount",
          "type": "uint256"
        },
        {
          "internalType": "bytes",
          "name": "data",
          "type": "bytes"
        },
        {
          "internalType": "bool",
          "name": "isExecuted",
          "type": "bool"
        },
        {
          "internalType": "uint256",
          "name": "numApprovals",
          "type": "uint256"
        }
      ],
      "stateMutability": "view",
      "type": "function"
    },
    {
      "inputs": [],
      "name": "getTransactionCount",
      "outputs": [
        {
          "internalType": "uint256",
          "name": "",
          "type": "uint256"
        }
      ],
      "stateMutability": "view",
      "type": "function"
    },
    {
      "inputs": [
        {
          "internalType": "uint256",
          "name": "",
          "type": "uint256"
        },
        {
          "internalType": "address",
          "name": "",
          "type": "address"
        }
      ],
      "name": "isApproved",
      "outputs": [
        {
          "internalType": "bool",
          "name": "",
          "type": "bool"
        }
      ],
      "stateMutability": "view",
      "type": "function"
    },
    {
      "inputs": [
        {
          "internalType": "address",
          "name": "",
          "type": "address"
        }
      ],
      "name": "isApprover",
      "outputs": [
        {
          "internalType": "bool",
          "name": "",
          "type": "bool"
        }
      ],
      "stateMutability": "view",
      "type": "function"
    },
    {
      "inputs": [],
      "name": "numApprovalsRequired",
      "outputs": [
        {
          "internalType": "uint256",
          "name": "",
          "type": "uint256"
        }
      ],
      "stateMutability": "view",
      "type": "function"
    },
    {
      "inputs": [
        {
          "internalType": "uint256",
          "name": "_txIndex",
          "type": "uint256"
        }
      ],
      "name": "revokeApproval",
      "outputs": [],
      "stateMutability": "nonpayable",
      "type": "function"
    },
    {
      "inputs": [
        {
          "internalType": "address",
          "name": "_to",
          "type": "address"
        },
        {
          "internalType": "uint256",
          "name": "_amount",
          "type": "uint256"
        },
        {
          "internalType": "bytes",
          "name": "_data",
          "type": "bytes"
        }
      ],
      "name": "submitTransaction",
      "outputs": [],
      "stateMutability": "nonpayable",
      "type": "function"
    },
    {
      "inputs": [
        {
          "internalType": "uint256",
          "name": "",
          "type": "uint256"
        }
      ],
      "name": "transactions",
      "outputs": [
        {
          "internalType": "address",
          "name": "to",
          "type": "address"
        },
        {
          "internalType": "uint256",
          "name": "amount",
          "type": "uint256"
        },
        {
          "internalType": "bytes",
          "name": "data",
          "type": "bytes"
        },
        {
          "internalType": "bool",
          "name": "isExecuted",
          "type": "bool"
        },
        {
          "internalType": "uint256",
          "name": "numApprovals",
          "type": "uint256"
        }
      ],
      "stateMutability": "view",
      "type": "function"
    },
    {
      "stateMutability": "payable",
      "type": "receive"
    }
  ],
  "bytecode": "0x60806040523480156200001157600080fd5b50604051620025e1380380620025e183398181016040528101906200003791906200050b565b60008251116200007e576040517f08c379a00000000000000000000000000000000000000000000000000000000081526004016200007590620005d2565b60405180910390fd5b60008111801562000090575081518111155b620000d2576040517f08c379a0000000000000000000000000000000000000000000000000000000008152600401620000c9906200066a565b60405180910390fd5b60005b8251811015620002d2576000838281518110620000f757620000f66200068c565b5b60200260200101519050600073ffffffffffffffffffffffffffffffffffffffff168173ffffffffffffffffffffffffffffffffffffffff160362000173576040517f08c379a00000000000000000000000000000000000000000000000000000000081526004016200016a906200070b565b60405180910390fd5b600160008273ffffffffffffffffffffffffffffffffffffffff1673ffffffffffffffffffffffffffffffffffffffff16815260200190815260200160002060009054906101000a900460ff161562000203576040517f08c379a0000000000000000000000000000000000000000000000000000000008152600401620001fa906200077d565b60405180910390fd5b60018060008373ffffffffffffffffffffffffffffffffffffffff1673ffffffffffffffffffffffffffffffffffffffff16815260200190815260200160002060006101000a81548160ff0219169083151502179055506000819080600181540180825580915050600190039060005260206000200160009091909190916101000a81548173ffffffffffffffffffffffffffffffffffffffff021916908373ffffffffffffffffffffffffffffffffffffffff1602179055505080620002ca90620007ce565b9050620000d5565b508060028190555050506200081b565b6000604051905090565b600080fd5b600080fd5b600080fd5b6000601f19601f8301169050919050565b7f4e487b7100000000000000000000000000000000000000000000000000000000600052604160045260246000fd5b6200034682620002fb565b810181811067ffffffffffffffff821117156200036857620003676200030c565b5b80604052505050565b60006200037d620002e2565b90506200038b82826200033b565b919050565b600067ffffffffffffffff821115620003ae57620003ad6200030c565b5b602082029050602081019050919050565b600080fd5b600073ffffffffffffffffffffffffffffffffffffffff82169050919050565b6000620003f182620003c4565b9050919050565b6200040381620003e4565b81146200040f57600080fd5b50565b6000815190506200042381620003f8565b92915050565b6000620004406200043a8462000390565b62000371565b90508083825260208201905060208402830185811115620004665762000465620003bf565b5b835b818110156200049357806200047e888262000412565b84526020840193505060208101905062000468565b5050509392505050565b600082601f830112620004b557620004b4620002f6565b5b8151620004c784826020860162000429565b91505092915050565b6000819050919050565b620004e581620004d0565b8114620004f157600080fd5b50565b6000815190506200050581620004da565b92915050565b60008060408385031215620005255762000524620002ec565b5b600083015167ffffffffffffffff811115620005465762000545620002f1565b5b62000554858286016200049d565b92505060206200056785828601620004f4565b9150509250929050565b600082825260208201905092915050565b7f617070726f766572732072657175697265640000000000000000000000000000600082015250565b6000620005ba60128362000571565b9150620005c78262000582565b602082019050919050565b60006020820190508181036000830152620005ed81620005ab565b9050919050565b7f20696e76616c6964206e756d626572206f66207265717569726564206170707260008201527f6f76616c73000000000000000000000000000000000000000000000000000000602082015250565b60006200065260258362000571565b91506200065f82620005f4565b604082019050919050565b60006020820190508181036000830152620006858162000643565b9050919050565b7f4e487b7100000000000000000000000000000000000000000000000000000000600052603260045260246000fd5b7f696e76616c696420617070726f76657200000000000000000000000000000000600082015250565b6000620006f360108362000571565b91506200070082620006bb565b602082019050919050565b600060208201905081810360008301526200072681620006e4565b9050919050565b7f616c726561647920616e20617070726f76657200000000000000000000000000600082015250565b60006200076560138362000571565b915062000772826200072d565b602082019050919050565b60006020820190508181036000830152620007988162000756565b9050919050565b7f4e487b7100000000000000000000000000000000000000000000000000000000600052601160045260246000fd5b6000620007db82620004d0565b91507fffffffffffffffffffffffffffffffffffffffffffffffffffffffffffffffff820362000810576200080f6200079f565b5b600182019050919050565b611db6806200082b6000396000f3fe6080604052600436106100ab5760003560e01c80639ace38c2116100645780639ace38c214610241578063b1e130fc14610282578063c6427474146102ab578063d3650fb8146102d4578063ee22610b14610311578063fe9320621461033a57610102565b8063242232d1146101075780632e7700f01461013057806333ea3dc81461015b57806356c316371461019c5780636cb3e8ef146101d95780636d218e481461020457610102565b36610102573373ffffffffffffffffffffffffffffffffffffffff167f90890809c654f11d6e72a28fa60149770a0d11ec6c92319d6ceb2bb0a4ea1a1534476040516100f8929190611268565b60405180910390a2005b600080fd5b34801561011357600080fd5b5061012e600480360381019061012991906112d1565b610365565b005b34801561013c57600080fd5b50610145610642565b60405161015291906112fe565b60405180910390f35b34801561016757600080fd5b50610182600480360381019061017d91906112d1565b61064f565b60405161019395949392919061140e565b60405180910390f35b3480156101a857600080fd5b506101c360048036038101906101be9190611494565b610762565b6040516101d091906114d4565b60405180910390f35b3480156101e557600080fd5b506101ee610791565b6040516101fb91906115ad565b60405180910390f35b34801561021057600080fd5b5061022b600480360381019061022691906115cf565b61081f565b60405161023891906114d4565b60405180910390f35b34801561024d57600080fd5b50610268600480360381019061026391906112d1565b61083f565b60405161027995949392919061140e565b60405180910390f35b34801561028e57600080fd5b506102a960048036038101906102a491906112d1565b61093a565b005b3480156102b757600080fd5b506102d260048036038101906102cd9190611731565b610c14565b005b3480156102e057600080fd5b506102fb60048036038101906102f691906112d1565b610e1e565b60405161030891906117a0565b60405180910390f35b34801561031d57600080fd5b50610338600480360381019061033391906112d1565b610e5d565b005b34801561034657600080fd5b5061034f6111a6565b60405161035c91906112fe565b60405180910390f35b600160003373ffffffffffffffffffffffffffffffffffffffff1673ffffffffffffffffffffffffffffffffffffffff16815260200190815260200160002060009054906101000a900460ff166103f1576040517f08c379a00000000000000000000000000000000000000000000000000000000081526004016103e890611818565b60405180910390fd5b806004805490508110610439576040517f08c379a000000000000000000000000000000000000000000000000000000000815260040161043090611884565b60405180910390fd5b816004818154811061044e5761044d6118a4565b5b906000526020600020906005020160030160009054906101000a900460ff16156104ad576040517f08c379a00000000000000000000000000000000000000000000000000000000081526004016104a49061191f565b60405180910390fd5b826003600082815260200190815260200160002060003373ffffffffffffffffffffffffffffffffffffffff1673ffffffffffffffffffffffffffffffffffffffff16815260200190815260200160002060009054906101000a900460ff161561054c576040517f08c379a00000000000000000000000000000000000000000000000000000000081526004016105439061198b565b60405180910390fd5b600060048581548110610562576105616118a4565b5b90600052602060002090600502019050600181600401600082825461058791906119da565b9250508190555060016003600087815260200190815260200160002060003373ffffffffffffffffffffffffffffffffffffffff1673ffffffffffffffffffffffffffffffffffffffff16815260200190815260200160002060006101000a81548160ff021916908315150217905550843373ffffffffffffffffffffffffffffffffffffffff167ffa624aadd8a0eae4ee975eae5cf13c9803b361b7fa2d832427db6207c088219360405160405180910390a35050505050565b6000600480549050905090565b600080606060008060006004878154811061066d5761066c6118a4565b5b906000526020600020906005020190508060000160009054906101000a900473ffffffffffffffffffffffffffffffffffffffff168160010154826002018360030160009054906101000a900460ff1684600401548280546106ce90611a5f565b80601f01602080910402602001604051908101604052809291908181526020018280546106fa90611a5f565b80156107475780601f1061071c57610100808354040283529160200191610747565b820191906000526020600020905b81548152906001019060200180831161072a57829003601f168201915b50505050509250955095509550955095505091939590929450565b60036020528160005260406000206020528060005260406000206000915091509054906101000a900460ff1681565b6060600080548060200260200160405190810160405280929190818152602001828054801561081557602002820191906000526020600020905b8160009054906101000a900473ffffffffffffffffffffffffffffffffffffffff1673ffffffffffffffffffffffffffffffffffffffff16815260200190600101908083116107cb575b5050505050905090565b60016020528060005260406000206000915054906101000a900460ff1681565b6004818154811061084f57600080fd5b90600052602060002090600502016000915090508060000160009054906101000a900473ffffffffffffffffffffffffffffffffffffffff169080600101549080600201805461089e90611a5f565b80601f01602080910402602001604051908101604052809291908181526020018280546108ca90611a5f565b80156109175780601f106108ec57610100808354040283529160200191610917565b820191906000526020600020905b8154815290600101906020018083116108fa57829003601f168201915b5050505050908060030160009054906101000a900460ff16908060040154905085565b600160003373ffffffffffffffffffffffffffffffffffffffff1673ffffffffffffffffffffffffffffffffffffffff16815260200190815260200160002060009054906101000a900460ff166109c6576040517f08c379a00000000000000000000000000000000000000000000000000000000081526004016109bd90611818565b60405180910390fd5b806004805490508110610a0e576040517f08c379a0000000000000000000000000000000000000000000000000000000008152600401610a0590611884565b60405180910390fd5b8160048181548110610a2357610a226118a4565b5b906000526020600020906005020160030160009054906101000a900460ff1615610a82576040517f08c379a0000000000000000000000000000000000000000000000000000000008152600401610a799061191f565b60405180910390fd5b600060048481548110610a9857610a976118a4565b5b906000526020600020906005020190506003600085815260200190815260200160002060003373ffffffffffffffffffffffffffffffffffffffff1673ffffffffffffffffffffffffffffffffffffffff16815260200190815260200160002060009054906101000a900460ff16610b45576040517f08c379a0000000000000000000000000000000000000000000000000000000008152600401610b3c90611b02565b60405180910390fd5b6001816004016000828254610b5a9190611b22565b9250508190555060006003600086815260200190815260200160002060003373ffffffffffffffffffffffffffffffffffffffff1673ffffffffffffffffffffffffffffffffffffffff16815260200190815260200160002060006101000a81548160ff021916908315150217905550833373ffffffffffffffffffffffffffffffffffffffff167f1e75c0948730226138e58d1e7446b6167b5159a6904c3ac4597714f298d13df260405160405180910390a350505050565b600160003373ffffffffffffffffffffffffffffffffffffffff1673ffffffffffffffffffffffffffffffffffffffff16815260200190815260200160002060009054906101000a900460ff16610ca0576040517f08c379a0000000000000000000000000000000000000000000000000000000008152600401610c9790611818565b60405180910390fd5b6000600480549050905060046040518060a001604052808673ffffffffffffffffffffffffffffffffffffffff1681526020018581526020018481526020016000151581526020016000815250908060018154018082558091505060019003906000526020600020906005020160009091909190915060008201518160000160006101000a81548173ffffffffffffffffffffffffffffffffffffffff021916908373ffffffffffffffffffffffffffffffffffffffff160217905550602082015181600101556040820151816002019080519060200190610d839291906111ac565b5060608201518160030160006101000a81548160ff0219169083151502179055506080820151816004015550508373ffffffffffffffffffffffffffffffffffffffff16813373ffffffffffffffffffffffffffffffffffffffff167fd5a05bf70715ad82a09a756320284a1b54c9ff74cd0f8cce6219e79b563fe59d8686604051610e10929190611b56565b60405180910390a450505050565b60008181548110610e2e57600080fd5b906000526020600020016000915054906101000a900473ffffffffffffffffffffffffffffffffffffffff1681565b600160003373ffffffffffffffffffffffffffffffffffffffff1673ffffffffffffffffffffffffffffffffffffffff16815260200190815260200160002060009054906101000a900460ff16610ee9576040517f08c379a0000000000000000000000000000000000000000000000000000000008152600401610ee090611818565b60405180910390fd5b806004805490508110610f31576040517f08c379a0000000000000000000000000000000000000000000000000000000008152600401610f2890611884565b60405180910390fd5b8160048181548110610f4657610f456118a4565b5b906000526020600020906005020160030160009054906101000a900460ff1615610fa5576040517f08c379a0000000000000000000000000000000000000000000000000000000008152600401610f9c9061191f565b60405180910390fd5b600060048481548110610fbb57610fba6118a4565b5b9060005260206000209060050201905060025481600401541015611014576040517f08c379a000000000000000000000000000000000000000000000000000000000815260040161100b90611bd2565b60405180910390fd5b806001015447101561105b576040517f08c379a000000000000000000000000000000000000000000000000000000000815260040161105290611c3e565b60405180910390fd5b60018160030160006101000a81548160ff02191690831515021790555060008160000160009054906101000a900473ffffffffffffffffffffffffffffffffffffffff1673ffffffffffffffffffffffffffffffffffffffff168260010154836002016040516110cb9190611cfd565b60006040518083038185875af1925050503d8060008114611108576040519150601f19603f3d011682016040523d82523d6000602084013e61110d565b606091505b5050905080611151576040517f08c379a000000000000000000000000000000000000000000000000000000000815260040161114890611d60565b60405180910390fd5b60008260010181905550843373ffffffffffffffffffffffffffffffffffffffff167f5445f318f4f5fcfb66592e68e0cc5822aa15664039bd5f0ffde24c5a8142b1ac60405160405180910390a35050505050565b60025481565b8280546111b890611a5f565b90600052602060002090601f0160209004810192826111da5760008555611221565b82601f106111f357805160ff1916838001178555611221565b82800160010185558215611221579182015b82811115611220578251825591602001919060010190611205565b5b50905061122e9190611232565b5090565b5b8082111561124b576000816000905550600101611233565b5090565b6000819050919050565b6112628161124f565b82525050565b600060408201905061127d6000830185611259565b61128a6020830184611259565b9392505050565b6000604051905090565b600080fd5b600080fd5b6112ae8161124f565b81146112b957600080fd5b50565b6000813590506112cb816112a5565b92915050565b6000602082840312156112e7576112e661129b565b5b60006112f5848285016112bc565b91505092915050565b60006020820190506113136000830184611259565b92915050565b600073ffffffffffffffffffffffffffffffffffffffff82169050919050565b600061134482611319565b9050919050565b61135481611339565b82525050565b600081519050919050565b600082825260208201905092915050565b60005b83811015611394578082015181840152602081019050611379565b838111156113a3576000848401525b50505050565b6000601f19601f8301169050919050565b60006113c58261135a565b6113cf8185611365565b93506113df818560208601611376565b6113e8816113a9565b840191505092915050565b60008115159050919050565b611408816113f3565b82525050565b600060a082019050611423600083018861134b565b6114306020830187611259565b818103604083015261144281866113ba565b905061145160608301856113ff565b61145e6080830184611259565b9695505050505050565b61147181611339565b811461147c57600080fd5b50565b60008135905061148e81611468565b92915050565b600080604083850312156114ab576114aa61129b565b5b60006114b9858286016112bc565b92505060206114ca8582860161147f565b9150509250929050565b60006020820190506114e960008301846113ff565b92915050565b600081519050919050565b600082825260208201905092915050565b6000819050602082019050919050565b61152481611339565b82525050565b6000611536838361151b565b60208301905092915050565b6000602082019050919050565b600061155a826114ef565b61156481856114fa565b935061156f8361150b565b8060005b838110156115a0578151611587888261152a565b975061159283611542565b925050600181019050611573565b5085935050505092915050565b600060208201905081810360008301526115c7818461154f565b905092915050565b6000602082840312156115e5576115e461129b565b5b60006115f38482850161147f565b91505092915050565b600080fd5b600080fd5b7f4e487b7100000000000000000000000000000000000000000000000000000000600052604160045260246000fd5b61163e826113a9565b810181811067ffffffffffffffff8211171561165d5761165c611606565b5b80604052505050565b6000611670611291565b905061167c8282611635565b919050565b600067ffffffffffffffff82111561169c5761169b611606565b5b6116a5826113a9565b9050602081019050919050565b82818337600083830152505050565b60006116d46116cf84611681565b611666565b9050828152602081018484840111156116f0576116ef611601565b5b6116fb8482856116b2565b509392505050565b600082601f830112611718576117176115fc565b5b81356117288482602086016116c1565b91505092915050565b60008060006060848603121561174a5761174961129b565b5b60006117588682870161147f565b9350506020611769868287016112bc565b925050604084013567ffffffffffffffff81111561178a576117896112a0565b5b61179686828701611703565b9150509250925092565b60006020820190506117b5600083018461134b565b92915050565b600082825260208201905092915050565b7f6e6f7420616e20617070726f7665720000000000000000000000000000000000600082015250565b6000611802600f836117bb565b915061180d826117cc565b602082019050919050565b60006020820190508181036000830152611831816117f5565b9050919050565b7f747820646f6573206e6f74206578697374000000000000000000000000000000600082015250565b600061186e6011836117bb565b915061187982611838565b602082019050919050565b6000602082019050818103600083015261189d81611861565b9050919050565b7f4e487b7100000000000000000000000000000000000000000000000000000000600052603260045260246000fd5b7f747820616c726561647920657865637574656421000000000000000000000000600082015250565b60006119096014836117bb565b9150611914826118d3565b602082019050919050565b60006020820190508181036000830152611938816118fc565b9050919050565b7f747820616c726561647920636f6e6669726d6564000000000000000000000000600082015250565b60006119756014836117bb565b91506119808261193f565b602082019050919050565b600060208201905081810360008301526119a481611968565b9050919050565b7f4e487b7100000000000000000000000000000000000000000000000000000000600052601160045260246000fd5b60006119e58261124f565b91506119f08361124f565b9250827fffffffffffffffffffffffffffffffffffffffffffffffffffffffffffffffff03821115611a2557611a246119ab565b5b828201905092915050565b7f4e487b7100000000000000000000000000000000000000000000000000000000600052602260045260246000fd5b60006002820490506001821680611a7757607f821691505b602082108103611a8a57611a89611a30565b5b50919050565b7f7478206e6f7420636f6e6669726d6564206279207468697320617070726f766560008201527f7200000000000000000000000000000000000000000000000000000000000000602082015250565b6000611aec6021836117bb565b9150611af782611a90565b604082019050919050565b60006020820190508181036000830152611b1b81611adf565b9050919050565b6000611b2d8261124f565b9150611b388361124f565b925082821015611b4b57611b4a6119ab565b5b828203905092915050565b6000604082019050611b6b6000830185611259565b8181036020830152611b7d81846113ba565b90509392505050565b7f6e6f7420656e6f75676820617070726f76616c73000000000000000000000000600082015250565b6000611bbc6014836117bb565b9150611bc782611b86565b602082019050919050565b60006020820190508181036000830152611beb81611baf565b9050919050565b7f6e6f7420656e6f7567682066756e647320696e20636f6e747261637400000000600082015250565b6000611c28601c836117bb565b9150611c3382611bf2565b602082019050919050565b60006020820190508181036000830152611c5781611c1b565b9050919050565b600081905092915050565b60008190508160005260206000209050919050565b60008154611c8b81611a5f565b611c958186611c5e565b94506001821660008114611cb05760018114611cc157611cf4565b60ff19831686528186019350611cf4565b611cca85611c69565b60005b83811015611cec57815481890152600182019150602081019050611ccd565b838801955050505b50505092915050565b6000611d098284611c7e565b915081905092915050565b7f7478206661696c65640000000000000000000000000000000000000000000000600082015250565b6000611d4a6009836117bb565b9150611d5582611d14565b602082019050919050565b60006020820190508181036000830152611d7981611d3d565b905091905056fea2646970667358221220ec6dfbe3e4915166783fd1c29198bf1890a55578ab327e208fcc1cb158fbde9564736f6c634300080d0033",
  "linkReferences": {},
  "deployedLinkReferences": {}
}